{
    "_format": "hh-sol-artifact-1",
    "contractName": "ConfidentialDAO",
    "sourceName": "contracts/ConfidentialDAO.sol",
    "abi": [
        {
            "inputs": [],
            "name": "HandlesAlreadySavedForRequestID",
            "type": "error"
        },
        {
            "anonymous": false,
            "inputs": [
                {
                    "indexed": true,
                    "internalType": "uint256",
                    "name": "proposalId",
                    "type": "uint256"
                },
                {
                    "indexed": true,
                    "internalType": "address",
                    "name": "creator",
                    "type": "address"
                },
                {
                    "indexed": false,
                    "internalType": "address",
                    "name": "token",
                    "type": "address"
                },
                {
                    "indexed": false,
                    "internalType": "uint256",
                    "name": "endTime",
                    "type": "uint256"
                }
            ],
            "name": "ProposalCreated",
            "type": "event"
        },
        {
            "anonymous": false,
            "inputs": [
                {
                    "indexed": true,
                    "internalType": "uint256",
                    "name": "proposalId",
                    "type": "uint256"
                },
                {
                    "indexed": false,
                    "internalType": "uint64",
                    "name": "forVotes",
                    "type": "uint64"
                },
                {
                    "indexed": false,
                    "internalType": "uint64",
                    "name": "againstVotes",
                    "type": "uint64"
                },
                {
                    "indexed": false,
                    "internalType": "uint64",
                    "name": "abstainVotes",
                    "type": "uint64"
                }
            ],
            "name": "ProposalResolved",
            "type": "event"
        },
        {
            "anonymous": false,
            "inputs": [
                {
                    "indexed": true,
                    "internalType": "uint256",
                    "name": "proposalId",
                    "type": "uint256"
                },
                {
                    "indexed": false,
                    "internalType": "uint256",
                    "name": "requestId",
                    "type": "uint256"
                }
            ],
            "name": "TallyRevealRequested",
            "type": "event"
        },
        {
            "anonymous": false,
            "inputs": [
                {
                    "indexed": true,
                    "internalType": "uint256",
                    "name": "proposalId",
                    "type": "uint256"
                },
                {
                    "indexed": true,
                    "internalType": "address",
                    "name": "voter",
                    "type": "address"
                }
            ],
            "name": "Voted",
            "type": "event"
        },
        {
            "inputs": [
                {
                    "internalType": "address",
                    "name": "token",
                    "type": "address"
                },
                {
                    "internalType": "uint256",
                    "name": "durationSeconds",
                    "type": "uint256"
                }
            ],
            "name": "createProposal",
            "outputs": [],
            "stateMutability": "nonpayable",
            "type": "function"
        },
        {
            "inputs": [
                {
                    "internalType": "uint256",
                    "name": "proposalId",
                    "type": "uint256"
                }
            ],
            "name": "getProposal",
            "outputs": [
                {
                    "internalType": "address",
                    "name": "creator",
                    "type": "address"
                },
                {
                    "internalType": "address",
                    "name": "token",
                    "type": "address"
                },
                {
                    "internalType": "uint256",
                    "name": "endTime",
                    "type": "uint256"
                },
                {
                    "internalType": "bool",
                    "name": "resolved",
                    "type": "bool"
                },
                {
                    "internalType": "uint64",
                    "name": "forVotes",
                    "type": "uint64"
                },
                {
                    "internalType": "uint64",
                    "name": "againstVotes",
                    "type": "uint64"
                },
                {
                    "internalType": "uint64",
                    "name": "abstainVotes",
                    "type": "uint64"
                }
            ],
            "stateMutability": "view",
            "type": "function"
        },
        {
            "inputs": [
                {
                    "internalType": "uint256",
                    "name": "",
                    "type": "uint256"
                },
                {
                    "internalType": "address",
                    "name": "",
                    "type": "address"
                }
            ],
            "name": "hasVoted",
            "outputs": [
                {
                    "internalType": "bool",
                    "name": "",
                    "type": "bool"
                }
            ],
            "stateMutability": "view",
            "type": "function"
        },
        {
            "inputs": [
                {
                    "internalType": "uint256",
                    "name": "",
                    "type": "uint256"
                }
            ],
            "name": "proposals",
            "outputs": [
                {
                    "internalType": "address",
                    "name": "creator",
                    "type": "address"
                },
                {
                    "internalType": "address",
                    "name": "token",
                    "type": "address"
                },
                {
                    "internalType": "uint256",
                    "name": "endTime",
                    "type": "uint256"
                },
                {
                    "internalType": "euint64",
                    "name": "forVotes",
                    "type": "bytes32"
                },
                {
                    "internalType": "euint64",
                    "name": "againstVotes",
                    "type": "bytes32"
                },
                {
                    "internalType": "euint64",
                    "name": "abstainVotes",
                    "type": "bytes32"
                },
                {
                    "internalType": "bool",
                    "name": "resolved",
                    "type": "bool"
                },
                {
                    "internalType": "uint64",
                    "name": "revealedFor",
                    "type": "uint64"
                },
                {
                    "internalType": "uint64",
                    "name": "revealedAgainst",
                    "type": "uint64"
                },
                {
                    "internalType": "uint64",
                    "name": "revealedAbstain",
                    "type": "uint64"
                },
                {
                    "internalType": "uint256",
                    "name": "decryptionRequestId",
                    "type": "uint256"
                }
            ],
            "stateMutability": "view",
            "type": "function"
        },
        {
            "inputs": [
                {
                    "internalType": "uint256",
                    "name": "proposalId",
                    "type": "uint256"
                }
            ],
            "name": "requestTallyReveal",
            "outputs": [],
            "stateMutability": "nonpayable",
            "type": "function"
        },
        {
            "inputs": [
                {
                    "internalType": "uint256",
                    "name": "requestId",
                    "type": "uint256"
                },
                {
                    "internalType": "uint64[]",
                    "name": "results",
                    "type": "uint64[]"
                }
            ],
            "name": "resolveTallyCallback",
            "outputs": [],
            "stateMutability": "nonpayable",
            "type": "function"
        },
        {
            "inputs": [
                {
                    "internalType": "uint256",
                    "name": "proposalId",
                    "type": "uint256"
                },
                {
                    "internalType": "externalEuint64",
                    "name": "encryptedVote",
                    "type": "bytes32"
                },
                {
                    "internalType": "bytes",
                    "name": "inputProof",
                    "type": "bytes"
                }
            ],
            "name": "vote",
            "outputs": [],
            "stateMutability": "nonpayable",
            "type": "function"
        }
    ],
    "bytecode": "0x608060405234801561000f575f80fd5b5061018a6100ae604080516080810182525f808252602082018190529181018290526060810191909152506040805160808101825273687820221192c5b662b25367f70076a37bc79b6c815273848b0066793bcc60346da1f49049357399b8d5956020820152731364cbbf2cdf5032c47d8226a6f6fbd2afcdacac9181019190915273bc91f3dad1a5f19f8390c400196e58073b6a0bc4606082015290565b80517fed8d60e34876f751cc8b014c560745351147d9de11b9347c854e881b128ea60080546001600160a01b03199081166001600160a01b039384161790915560208301517fed8d60e34876f751cc8b014c560745351147d9de11b9347c854e881b128ea6018054831691841691909117905560408301517fed8d60e34876f751cc8b014c560745351147d9de11b9347c854e881b128ea6028054831691841691909117905560608301517fed8d60e34876f751cc8b014c560745351147d9de11b9347c854e881b128ea6038054909216921691909117905550565b7f5ea69329017273582817d320489fbd94f775580e90c092699ca6f3d12fdf7d0080546001600160a01b03191673a02cda4ca3a71d7c46997716f4283aa851c28812179055611972806101dc5f395ff3fe608060405234801561000f575f80fd5b506004361061007a575f3560e01c80634ba39f42116100585780634ba39f42146101585780635eff1bb81461016b578063c7f758a81461017e578063dfc51a25146101e1575f80fd5b8063013cf08b1461007e57806322be8def14610106578063438596321461011b575b5f80fd5b61009161008c3660046115da565b6101f4565b604080516001600160a01b039c8d1681529b909a1660208c0152988a01979097526060890195909552608088019390935260a0870191909152151560c086015267ffffffffffffffff90811660e086015290811661010085015216610120830152610140820152610160015b60405180910390f35b610119610114366004611621565b610284565b005b610148610129366004611703565b600160209081525f928352604080842090915290825290205460ff1681565b60405190151581526020016100fd565b6101196101663660046115da565b6104cf565b61011961017936600461172d565b61071b565b61019161018c3660046115da565b610a2d565b604080516001600160a01b03988916815297909616602088015294860193909352901515606085015267ffffffffffffffff908116608085015290811660a08401521660c082015260e0016100fd565b6101196101ef3660046117a6565b610b54565b5f8181548110610202575f80fd5b5f918252602090912060089091020180546001820154600283015460038401546004850154600586015460068701546007909701546001600160a01b039687169850949095169592949193909260ff81169167ffffffffffffffff610100830481169269010000000000000000008104821692600160881b909104909116908b565b5f5b5f548110156104ca57825f82815481106102a2576102a26117ce565b905f5260205f20906008020160070154036104c257815f815181106102c9576102c96117ce565b60200260200101515f82815481106102e3576102e36117ce565b905f5260205f20906008020160060160016101000a81548167ffffffffffffffff021916908367ffffffffffffffff1602179055508160018151811061032b5761032b6117ce565b60200260200101515f8281548110610345576103456117ce565b905f5260205f20906008020160060160096101000a81548167ffffffffffffffff021916908367ffffffffffffffff1602179055508160028151811061038d5761038d6117ce565b60200260200101515f82815481106103a7576103a76117ce565b905f5260205f20906008020160060160116101000a81548167ffffffffffffffff021916908367ffffffffffffffff16021790555060015f82815481106103f0576103f06117ce565b905f5260205f2090600802016006015f6101000a81548160ff021916908315150217905550807fec0ab5d7557360015686f4714298d7530b0a0a0b033da9c0664b8e3073bbf3bf835f81518110610449576104496117ce565b602002602001015184600181518110610464576104646117ce565b60200260200101518560028151811061047f5761047f6117ce565b60200260200101516040516104b59392919067ffffffffffffffff93841681529183166020830152909116604082015260600190565b60405180910390a2505050565b600101610286565b505050565b5f5481106105175760405162461bcd60e51b815260206004820152601060248201526f125b9d985b1a59081c1c9bdc1bdcd85b60821b60448201526064015b60405180910390fd5b5f80828154811061052a5761052a6117ce565b905f5260205f2090600802019050806002015442101561058c5760405162461bcd60e51b815260206004820152601060248201527f566f74696e67206e6f7420656e64656400000000000000000000000000000000604482015260640161050e565b600681015460ff16156105e15760405162461bcd60e51b815260206004820152601060248201527f416c7265616479207265736f6c76656400000000000000000000000000000000604482015260640161050e565b80546001600160a01b0316331461063a5760405162461bcd60e51b815260206004820152601f60248201527f4f6e6c792063726561746f722063616e20726571756573742072657665616c00604482015260640161050e565b604080516003808252608082019092525f91602082016060803683375050506003830154909150815f81518110610673576106736117ce565b6020908102919091010152600482015481600181518110610696576106966117ce565b60209081029190910101526005820154816002815181106106b9576106b96117ce565b60209081029190910101525f6106d6826322be8def60e01b610ec4565b6007840181905560405181815290915084907f3b6723f18ed1ba6e6d5ef6c5dde279317eb439c0b060dfc62f2a5ec7209b07c79060200160405180910390a250505050565b5f54841061075e5760405162461bcd60e51b815260206004820152601060248201526f125b9d985b1a59081c1c9bdc1bdcd85b60821b604482015260640161050e565b5f808581548110610771576107716117ce565b905f5260205f2090600802019050806002015442106107d25760405162461bcd60e51b815260206004820152600c60248201527f566f74696e6720656e6465640000000000000000000000000000000000000000604482015260640161050e565b5f85815260016020908152604080832033845290915290205460ff161561083b5760405162461bcd60e51b815260206004820152600d60248201527f416c726561647920766f74656400000000000000000000000000000000000000604482015260640161050e565b60018101546040516370a0823160e01b81523360048201525f916001600160a01b0316906370a0823190602401602060405180830381865afa158015610883573d5f803e3d5ffd5b505050506040513d601f19601f820116820180604052508101906108a791906117e2565b116108f45760405162461bcd60e51b815260206004820152601260248201527f4e6f74206120746f6b656e20686f6c6465720000000000000000000000000000604482015260640161050e565b5f6109348585858080601f0160208091040260200160405190810160405280939291908181526020018383808284375f92019190915250610ed792505050565b90505f61094a826109456001610eea565b610f00565b90505f61095a836109455f610eea565b90505f61096b846109456002610eea565b90506109968560030154610991856109836001610eea565b61098c5f610eea565b610f2e565b610f42565b600386015560048501546109b290610991846109836001610eea565b600486015560058501546109ce90610991836109836001610eea565b60058601555f898152600160208181526040808420338086529252808420805460ff1916909317909255905190918b917f030b0f8dcd86a031eddb071f91882edeac8173663ba775713b677b42b51be44b9190a3505050505050505050565b5f805f805f805f80805490508810610a7a5760405162461bcd60e51b815260206004820152601060248201526f125b9d985b1a59081c1c9bdc1bdcd85b60821b604482015260640161050e565b5f808981548110610a8d57610a8d6117ce565b5f918252602090912060089091020180546001820154600283015460068401549394506001600160a01b0392831693929091169160ff1680610acf575f610ae4565b6006850154610100900467ffffffffffffffff165b600686015460ff16610af6575f610b13565b60068601546901000000000000000000900467ffffffffffffffff165b600687015460ff16610b25575f610b3c565b6006870154600160881b900467ffffffffffffffff165b959f949e50929c50909a509850965090945092505050565b5f8111610ba35760405162461bcd60e51b815260206004820152601960248201527f4475726174696f6e206d75737420626520706f73697469766500000000000000604482015260640161050e565b60408051610160810182523381526001600160a01b03841660208201525f918101610bce844261180d565b8152602001610bdc5f610eea565b8152602001610bea5f610eea565b8152602001610bf85f610eea565b81525f602080830182905260408084018390526060808501849052608080860185905260a095860185905284546001808201875586805288517f290decd9548b62a8d60345a988386fc84ba6bc95484008f6362f93160ef3e563600890930292830180547fffffffffffffffffffffffff00000000000000000000000000000000000000009081166001600160a01b0393841617909155968a01517f290decd9548b62a8d60345a988386fc84ba6bc95484008f6362f93160ef3e56484018054909816911617909555928701517f290decd9548b62a8d60345a988386fc84ba6bc95484008f6362f93160ef3e565840155908601517f290decd9548b62a8d60345a988386fc84ba6bc95484008f6362f93160ef3e5668301558501517f290decd9548b62a8d60345a988386fc84ba6bc95484008f6362f93160ef3e567820155928401517f290decd9548b62a8d60345a988386fc84ba6bc95484008f6362f93160ef3e56884015560c08401517f290decd9548b62a8d60345a988386fc84ba6bc95484008f6362f93160ef3e5698401805460e0870151610100808901516101208a015168ffffffffffffffffff1990941695151568ffffffffffffffff0019169590951767ffffffffffffffff928316909102177fffffffffffffff00000000000000000000000000000000ffffffffffffffffff166901000000000000000000948216949094027fffffffffffffff0000000000000000ffffffffffffffffffffffffffffffffff1693909317600160881b93909116929092029190911790556101408401517f290decd9548b62a8d60345a988386fc84ba6bc95484008f6362f93160ef3e56a90930192909255549192503391610e789190611820565b60408084015181516001600160a01b038816815260208101919091527f6d4365eeea2290a1fb5155f6f527bb01f4a2797dea12f20abc314effacafd202910160405180910390a3505050565b5f610ed083835f610f70565b9392505050565b5f610ed0838360056110bc565b92915050565b5f610ee48267ffffffffffffffff1660056111dc565b5f82610f1257610f0f5f610eea565b92505b81610f2357610f205f610eea565b91505b610ed083835f611291565b5f610f3a84848461138c565b949350505050565b5f82610f5457610f515f610eea565b92505b81610f6557610f625f610eea565b91505b610ed083835f611435565b7f5ea69329017273582817d320489fbd94f775580e90c092699ca6f3d12fdf7d01547fed8d60e34876f751cc8b014c560745351147d9de11b9347c854e881b128ea6008054604051637d6e912360e11b81527f5ea69329017273582817d320489fbd94f775580e90c092699ca6f3d12fdf7d0092916001600160a01b03169063fadd22469061100390899060040161186d565b5f604051808303815f87803b15801561101a575f80fd5b505af115801561102c573d5f803e3d5ffd5b50508354604051633263b83b60e01b81526001600160a01b039091169250633263b83b915086906110659087908b908b9060040161187f565b5f604051808303818588803b15801561107c575f80fd5b505af115801561108e573d5f803e3d5ffd5b505050505061109d83876114ea565b600182018054905f6110ae836118b0565b919050555050509392505050565b7fed8d60e34876f751cc8b014c560745351147d9de11b9347c854e881b128ea6015460405163196d0b9b60e01b81525f917fed8d60e34876f751cc8b014c560745351147d9de11b9347c854e881b128ea600916001600160a01b039091169063196d0b9b906111359088903390899089906004016118e8565b6020604051808303815f875af1158015611151573d5f803e3d5ffd5b505050506040513d601f19601f8201168201806040525081019061117591906117e2565b8154604051630f8e573b60e21b8152600481018390523360248201529193506001600160a01b031690633e395cec906044015f604051808303815f87803b1580156111be575f80fd5b505af11580156111d0573d5f803e3d5ffd5b50505050509392505050565b7fed8d60e34876f751cc8b014c560745351147d9de11b9347c854e881b128ea60154604051639cd07acb60e01b81525f917fed8d60e34876f751cc8b014c560745351147d9de11b9347c854e881b128ea600916001600160a01b0390911690639cd07acb906112519087908790600401611951565b6020604051808303815f875af115801561126d573d5f803e3d5ffd5b505050506040513d601f19601f82011682018060405250810190610f3a91906117e2565b5f8082156112a45750600160f81b6112a7565b505f5b7fed8d60e34876f751cc8b014c560745351147d9de11b9347c854e881b128ea6015460405163f77f3f1d60e01b815260048101879052602481018690527fff00000000000000000000000000000000000000000000000000000000000000831660448201527fed8d60e34876f751cc8b014c560745351147d9de11b9347c854e881b128ea600916001600160a01b03169063f77f3f1d906064015b6020604051808303815f875af115801561135e573d5f803e3d5ffd5b505050506040513d601f19601f8201168201806040525081019061138291906117e2565b9695505050505050565b5f807fed8d60e34876f751cc8b014c560745351147d9de11b9347c854e881b128ea6006001810154604051637702dcff60e01b81526004810188905260248101879052604481018690529192506001600160a01b031690637702dcff906064016020604051808303815f875af1158015611408573d5f803e3d5ffd5b505050506040513d601f19601f8201168201806040525081019061142c91906117e2565b95945050505050565b5f8082156114485750600160f81b61144b565b505f5b7fed8d60e34876f751cc8b014c560745351147d9de11b9347c854e881b128ea6015460405163022f65e760e31b815260048101879052602481018690527fff00000000000000000000000000000000000000000000000000000000000000831660448201527fed8d60e34876f751cc8b014c560745351147d9de11b9347c854e881b128ea600916001600160a01b03169063117b2f3890606401611342565b5f8281527f5ea69329017273582817d320489fbd94f775580e90c092699ca6f3d12fdf7d0260205260409020547f5ea69329017273582817d320489fbd94f775580e90c092699ca6f3d12fdf7d00901561155757604051633f06d22b60e01b815260040160405180910390fd5b5f838152600282016020908152604090912083516115779285019061157d565b50505050565b828054828255905f5260205f209081019282156115b6579160200282015b828111156115b657825182559160200191906001019061159b565b506115c29291506115c6565b5090565b5b808211156115c2575f81556001016115c7565b5f602082840312156115ea575f80fd5b5035919050565b634e487b7160e01b5f52604160045260245ffd5b803567ffffffffffffffff8116811461161c575f80fd5b919050565b5f8060408385031215611632575f80fd5b8235915060208084013567ffffffffffffffff80821115611651575f80fd5b818601915086601f830112611664575f80fd5b813581811115611676576116766115f1565b8060051b604051601f19603f8301168101818110858211171561169b5761169b6115f1565b6040529182528482019250838101850191898311156116b8575f80fd5b938501935b828510156116dd576116ce85611605565b845293850193928501926116bd565b8096505050505050509250929050565b80356001600160a01b038116811461161c575f80fd5b5f8060408385031215611714575f80fd5b82359150611724602084016116ed565b90509250929050565b5f805f8060608587031215611740575f80fd5b8435935060208501359250604085013567ffffffffffffffff80821115611765575f80fd5b818701915087601f830112611778575f80fd5b813581811115611786575f80fd5b886020828501011115611797575f80fd5b95989497505060200194505050565b5f80604083850312156117b7575f80fd5b6117c0836116ed565b946020939093013593505050565b634e487b7160e01b5f52603260045260245ffd5b5f602082840312156117f2575f80fd5b5051919050565b634e487b7160e01b5f52601160045260245ffd5b80820180821115610ee457610ee46117f9565b81810381811115610ee457610ee46117f9565b5f815180845260208085019450602084015f5b8381101561186257815187529582019590820190600101611846565b509495945050505050565b602081525f610ed06020830184611833565b838152606060208201525f6118976060830185611833565b905063ffffffff60e01b83166040830152949350505050565b5f600182016118c1576118c16117f9565b5060010190565b605481106118e457634e487b7160e01b5f52602160045260245ffd5b9052565b8481525f60206001600160a01b03861660208401526080604084015284518060808501525f5b8181101561192a5786810183015185820160a00152820161190e565b505f60a0828601015260a0601f19601f8301168501019250505061142c60608301846118c8565b82815260408101610ed060208301846118c856fea164736f6c6343000818000a",
    "linkReferences": {},
    "deployedLinkReferences": {}
}