{
  "_format": "hh-sol-artifact-1",
  "contractName": "ConfidentialDAO",
  "sourceName": "contracts/ConfidentialDAO.sol",
  "abi": [
    {
      "inputs": [],
      "name": "HandlesAlreadySavedForRequestID",
      "type": "error"
    },
    {
      "inputs": [],
      "name": "InvalidKMSSignatures",
      "type": "error"
    },
    {
      "inputs": [],
      "name": "NoHandleFoundForRequestID",
      "type": "error"
    },
    {
      "inputs": [],
      "name": "UnsupportedHandleType",
      "type": "error"
    },
    {
      "anonymous": false,
      "inputs": [
        {
          "indexed": true,
          "internalType": "uint256",
          "name": "requestID",
          "type": "uint256"
        }
      ],
      "name": "DecryptionFulfilled",
      "type": "event"
    },
    {
      "anonymous": false,
      "inputs": [
        {
          "indexed": true,
          "internalType": "uint256",
          "name": "proposalId",
          "type": "uint256"
        },
        {
          "indexed": true,
          "internalType": "address",
          "name": "creator",
          "type": "address"
        },
        {
          "indexed": false,
          "internalType": "address",
          "name": "token",
          "type": "address"
        },
        {
          "indexed": false,
          "internalType": "uint256",
          "name": "endTime",
          "type": "uint256"
        }
      ],
      "name": "ProposalCreated",
      "type": "event"
    },
    {
      "anonymous": false,
      "inputs": [
        {
          "indexed": true,
          "internalType": "uint256",
          "name": "proposalId",
          "type": "uint256"
        },
        {
          "indexed": false,
          "internalType": "uint64",
          "name": "forVotes",
          "type": "uint64"
        },
        {
          "indexed": false,
          "internalType": "uint64",
          "name": "againstVotes",
          "type": "uint64"
        },
        {
          "indexed": false,
          "internalType": "uint64",
          "name": "abstainVotes",
          "type": "uint64"
        }
      ],
      "name": "ProposalResolved",
      "type": "event"
    },
    {
      "anonymous": false,
      "inputs": [
        {
          "indexed": true,
          "internalType": "uint256",
          "name": "proposalId",
          "type": "uint256"
        },
        {
          "indexed": false,
          "internalType": "uint256",
          "name": "requestId",
          "type": "uint256"
        }
      ],
      "name": "TallyRevealRequested",
      "type": "event"
    },
    {
      "anonymous": false,
      "inputs": [
        {
          "indexed": true,
          "internalType": "uint256",
          "name": "proposalId",
          "type": "uint256"
        },
        {
          "indexed": true,
          "internalType": "address",
          "name": "voter",
          "type": "address"
        }
      ],
      "name": "Voted",
      "type": "event"
    },
    {
      "inputs": [
        {
          "internalType": "address",
          "name": "token",
          "type": "address"
        },
        {
          "internalType": "uint256",
          "name": "durationSeconds",
          "type": "uint256"
        }
      ],
      "name": "createProposal",
      "outputs": [],
      "stateMutability": "nonpayable",
      "type": "function"
    },
    {
      "inputs": [
        {
          "internalType": "uint256",
          "name": "proposalId",
          "type": "uint256"
        }
      ],
      "name": "getDecryptionRequestId",
      "outputs": [
        {
          "internalType": "uint256",
          "name": "",
          "type": "uint256"
        }
      ],
      "stateMutability": "view",
      "type": "function"
    },
    {
      "inputs": [
        {
          "internalType": "uint256",
          "name": "proposalId",
          "type": "uint256"
        }
      ],
      "name": "getProposal",
      "outputs": [
        {
          "internalType": "address",
          "name": "creator",
          "type": "address"
        },
        {
          "internalType": "address",
          "name": "token",
          "type": "address"
        },
        {
          "internalType": "uint256",
          "name": "endTime",
          "type": "uint256"
        },
        {
          "internalType": "bool",
          "name": "resolved",
          "type": "bool"
        },
        {
          "internalType": "uint64",
          "name": "forVotes",
          "type": "uint64"
        },
        {
          "internalType": "uint64",
          "name": "againstVotes",
          "type": "uint64"
        },
        {
          "internalType": "uint64",
          "name": "abstainVotes",
          "type": "uint64"
        }
      ],
      "stateMutability": "view",
      "type": "function"
    },
    {
      "inputs": [
        {
          "internalType": "uint256",
          "name": "proposalId",
          "type": "uint256"
        }
      ],
      "name": "getRevealStatus",
      "outputs": [
        {
          "internalType": "bool",
          "name": "resolved",
          "type": "bool"
        },
        {
          "internalType": "uint64",
          "name": "revealedFor",
          "type": "uint64"
        },
        {
          "internalType": "uint64",
          "name": "revealedAgainst",
          "type": "uint64"
        },
        {
          "internalType": "uint64",
          "name": "revealedAbstain",
          "type": "uint64"
        },
        {
          "internalType": "uint256",
          "name": "decryptionRequestId",
          "type": "uint256"
        }
      ],
      "stateMutability": "view",
      "type": "function"
    },
    {
      "inputs": [
        {
          "internalType": "uint256",
          "name": "",
          "type": "uint256"
        },
        {
          "internalType": "address",
          "name": "",
          "type": "address"
        }
      ],
      "name": "hasVoted",
      "outputs": [
        {
          "internalType": "bool",
          "name": "",
          "type": "bool"
        }
      ],
      "stateMutability": "view",
      "type": "function"
    },
    {
      "inputs": [
        {
          "internalType": "uint256",
          "name": "proposalId",
          "type": "uint256"
        }
      ],
      "name": "isRevealRequested",
      "outputs": [
        {
          "internalType": "bool",
          "name": "",
          "type": "bool"
        }
      ],
      "stateMutability": "view",
      "type": "function"
    },
    {
      "inputs": [
        {
          "internalType": "uint256",
          "name": "",
          "type": "uint256"
        }
      ],
      "name": "proposals",
      "outputs": [
        {
          "internalType": "address",
          "name": "creator",
          "type": "address"
        },
        {
          "internalType": "address",
          "name": "token",
          "type": "address"
        },
        {
          "internalType": "uint256",
          "name": "endTime",
          "type": "uint256"
        },
        {
          "internalType": "euint64",
          "name": "forVotes",
          "type": "bytes32"
        },
        {
          "internalType": "euint64",
          "name": "againstVotes",
          "type": "bytes32"
        },
        {
          "internalType": "euint64",
          "name": "abstainVotes",
          "type": "bytes32"
        },
        {
          "internalType": "bool",
          "name": "resolved",
          "type": "bool"
        },
        {
          "internalType": "uint64",
          "name": "revealedFor",
          "type": "uint64"
        },
        {
          "internalType": "uint64",
          "name": "revealedAgainst",
          "type": "uint64"
        },
        {
          "internalType": "uint64",
          "name": "revealedAbstain",
          "type": "uint64"
        },
        {
          "internalType": "uint256",
          "name": "decryptionRequestId",
          "type": "uint256"
        }
      ],
      "stateMutability": "view",
      "type": "function"
    },
    {
      "inputs": [
        {
          "internalType": "uint256",
          "name": "proposalId",
          "type": "uint256"
        }
      ],
      "name": "requestTallyReveal",
      "outputs": [],
      "stateMutability": "nonpayable",
      "type": "function"
    },
    {
      "inputs": [
        {
          "internalType": "uint256",
          "name": "requestId",
          "type": "uint256"
        },
        {
          "internalType": "uint64",
          "name": "revealedFor",
          "type": "uint64"
        },
        {
          "internalType": "uint64",
          "name": "revealedAgainst",
          "type": "uint64"
        },
        {
          "internalType": "uint64",
          "name": "revealedAbstain",
          "type": "uint64"
        },
        {
          "internalType": "bytes[]",
          "name": "signatures",
          "type": "bytes[]"
        }
      ],
      "name": "resolveTallyCallback",
      "outputs": [],
      "stateMutability": "nonpayable",
      "type": "function"
    },
    {
      "inputs": [
        {
          "internalType": "uint256",
          "name": "proposalId",
          "type": "uint256"
        },
        {
          "internalType": "externalEuint64",
          "name": "encryptedVote",
          "type": "bytes32"
        },
        {
          "internalType": "bytes",
          "name": "inputProof",
          "type": "bytes"
        }
      ],
      "name": "vote",
      "outputs": [],
      "stateMutability": "nonpayable",
      "type": "function"
    }
  ],
  "bytecode": "0x608060405234801561000f575f80fd5b5061018a6100ae604080516080810182525f808252602082018190529181018290526060810191909152506040805160808101825273687820221192c5b662b25367f70076a37bc79b6c815273848b0066793bcc60346da1f49049357399b8d5956020820152731364cbbf2cdf5032c47d8226a6f6fbd2afcdacac9181019190915273bc91f3dad1a5f19f8390c400196e58073b6a0bc4606082015290565b80517fed8d60e34876f751cc8b014c560745351147d9de11b9347c854e881b128ea60080546001600160a01b03199081166001600160a01b039384161790915560208301517fed8d60e34876f751cc8b014c560745351147d9de11b9347c854e881b128ea6018054831691841691909117905560408301517fed8d60e34876f751cc8b014c560745351147d9de11b9347c854e881b128ea6028054831691841691909117905560608301517fed8d60e34876f751cc8b014c560745351147d9de11b9347c854e881b128ea6038054909216921691909117905550565b7f5ea69329017273582817d320489fbd94f775580e90c092699ca6f3d12fdf7d0080546001600160a01b03191673a02cda4ca3a71d7c46997716f4283aa851c28812179055612057806101dc5f395ff3fe608060405234801561000f575f80fd5b50600436106100b9575f3560e01c806388adeffc11610072578063c7f758a811610058578063c7f758a81461021c578063d7a40c211461027f578063dfc51a25146102a0575f80fd5b806388adeffc146101f6578063a81f79c614610209575f80fd5b806343859632116100a257806343859632146101915780634ba39f42146101ce5780635eff1bb8146101e3575f80fd5b8063013cf08b146100bd5780633629130914610145575b5f80fd5b6100d06100cb366004611b3d565b6102b3565b604080516001600160a01b039c8d1681529b909a1660208c0152988a01979097526060890195909552608088019390935260a0870191909152151560c086015267ffffffffffffffff90811660e086015290811661010085015216610120830152610140820152610160015b60405180910390f35b610158610153366004611b3d565b610343565b60408051951515865267ffffffffffffffff9485166020870152928416928501929092529091166060830152608082015260a00161013c565b6101be61019f366004611b6f565b600160209081525f928352604080842090915290825290205460ff1681565b604051901515815260200161013c565b6101e16101dc366004611b3d565b6103fe565b005b6101e16101f1366004611b99565b610645565b6101be610204366004611b3d565b610970565b6101e1610217366004611c6e565b6109e0565b61022f61022a366004611b3d565b610b94565b604080516001600160a01b03988916815297909616602088015294860193909352901515606085015267ffffffffffffffff908116608085015290811660a08401521660c082015260e00161013c565b61029261028d366004611b3d565b610cbb565b60405190815260200161013c565b6101e16102ae366004611dc3565b610d28565b5f81815481106102c1575f80fd5b5f918252602090912060089091020180546001820154600283015460038401546004850154600586015460068701546007909701546001600160a01b039687169850949095169592949193909260ff81169167ffffffffffffffff610100830481169269010000000000000000008104821692600160881b909104909116908b565b5f805f805f808054905086106103935760405162461bcd60e51b815260206004820152601060248201526f125b9d985b1a59081c1c9bdc1bdcd85b60821b60448201526064015b60405180910390fd5b5f8087815481106103a6576103a6611deb565b5f9182526020909120600890910201600681015460079091015460ff821699610100830467ffffffffffffffff9081169a506901000000000000000000840481169950600160881b9093049092169650945092505050565b5f5481106104415760405162461bcd60e51b815260206004820152601060248201526f125b9d985b1a59081c1c9bdc1bdcd85b60821b604482015260640161038a565b5f80828154811061045457610454611deb565b905f5260205f209060080201905080600201544210156104b65760405162461bcd60e51b815260206004820152601060248201527f566f74696e67206e6f7420656e64656400000000000000000000000000000000604482015260640161038a565b600681015460ff161561050b5760405162461bcd60e51b815260206004820152601060248201527f416c7265616479207265736f6c76656400000000000000000000000000000000604482015260640161038a565b80546001600160a01b031633146105645760405162461bcd60e51b815260206004820152601f60248201527f4f6e6c792063726561746f722063616e20726571756573742072657665616c00604482015260640161038a565b604080516003808252608082019092525f91602082016060803683375050506003830154909150815f8151811061059d5761059d611deb565b60209081029190910101526004820154816001815181106105c0576105c0611deb565b60209081029190910101526005820154816002815181106105e3576105e3611deb565b60209081029190910101525f6106008263540fbce360e11b611098565b6007840181905560405181815290915084907f3b6723f18ed1ba6e6d5ef6c5dde279317eb439c0b060dfc62f2a5ec7209b07c79060200160405180910390a250505050565b5f5484106106885760405162461bcd60e51b815260206004820152601060248201526f125b9d985b1a59081c1c9bdc1bdcd85b60821b604482015260640161038a565b5f80858154811061069b5761069b611deb565b905f5260205f2090600802019050806002015442106106fc5760405162461bcd60e51b815260206004820152600c60248201527f566f74696e6720656e6465640000000000000000000000000000000000000000604482015260640161038a565b5f85815260016020908152604080832033845290915290205460ff16156107655760405162461bcd60e51b815260206004820152600d60248201527f416c726561647920766f74656400000000000000000000000000000000000000604482015260640161038a565b60018101546040516370a0823160e01b81523360048201525f916001600160a01b0316906370a0823190602401602060405180830381865afa1580156107ad573d5f803e3d5ffd5b505050506040513d601f19601f820116820180604052508101906107d19190611dff565b1161081e5760405162461bcd60e51b815260206004820152601260248201527f4e6f74206120746f6b656e20686f6c6465720000000000000000000000000000604482015260640161038a565b5f61085e8585858080601f0160208091040260200160405190810160405280939291908181526020018383808284375f920191909152506110ab92505050565b90505f6108748261086f60016110be565b6110d4565b90505f6108848361086f5f6110be565b90505f6108958461086f60026110be565b90506108b785600301546108b285876108ad5f6110be565b611102565b611116565b600386018190556108c790611144565b506108de85600401546108b284876108ad5f6110be565b600486018190556108ee90611144565b5061090585600501546108b283876108ad5f6110be565b6005860181905561091590611144565b505f898152600160208181526040808420338086529252808420805460ff1916909317909255905190918b917f030b0f8dcd86a031eddb071f91882edeac8173663ba775713b677b42b51be44b9190a3505050505050505050565b5f805482106109b45760405162461bcd60e51b815260206004820152601060248201526f125b9d985b1a59081c1c9bdc1bdcd85b60821b604482015260640161038a565b5f82815481106109c6576109c6611deb565b905f5260205f209060080201600701545f14159050919050565b6109ea8582611153565b5f5b5f54811015610b8c57855f8281548110610a0857610a08611deb565b905f5260205f2090600802016007015403610b8457845f8281548110610a3057610a30611deb565b905f5260205f20906008020160060160016101000a81548167ffffffffffffffff021916908367ffffffffffffffff160217905550835f8281548110610a7857610a78611deb565b905f5260205f20906008020160060160096101000a81548167ffffffffffffffff021916908367ffffffffffffffff160217905550825f8281548110610ac057610ac0611deb565b905f5260205f20906008020160060160116101000a81548167ffffffffffffffff021916908367ffffffffffffffff16021790555060015f8281548110610b0957610b09611deb565b5f91825260209182902060089190910201600601805460ff1916921515929092179091556040805167ffffffffffffffff8881168252878116938201939093529185169082015281907fec0ab5d7557360015686f4714298d7530b0a0a0b033da9c0664b8e3073bbf3bf9060600160405180910390a2610b8c565b6001016109ec565b505050505050565b5f805f805f805f80805490508810610be15760405162461bcd60e51b815260206004820152601060248201526f125b9d985b1a59081c1c9bdc1bdcd85b60821b604482015260640161038a565b5f808981548110610bf457610bf4611deb565b5f918252602090912060089091020180546001820154600283015460068401549394506001600160a01b0392831693929091169160ff1680610c36575f610c4b565b6006850154610100900467ffffffffffffffff165b600686015460ff16610c5d575f610c7a565b60068601546901000000000000000000900467ffffffffffffffff165b600687015460ff16610c8c575f610ca3565b6006870154600160881b900467ffffffffffffffff165b959f949e50929c50909a509850965090945092505050565b5f80548210610cff5760405162461bcd60e51b815260206004820152601060248201526f125b9d985b1a59081c1c9bdc1bdcd85b60821b604482015260640161038a565b5f8281548110610d1157610d11611deb565b905f5260205f209060080201600701549050919050565b5f8111610d775760405162461bcd60e51b815260206004820152601960248201527f4475726174696f6e206d75737420626520706f73697469766500000000000000604482015260640161038a565b60408051610160810182523381526001600160a01b03841660208201525f918101610da28442611e2a565b8152602001610db05f6110be565b8152602001610dbe5f6110be565b8152602001610dcc5f6110be565b81525f602080830182905260408084018390526060808501849052608080860185905260a095860185905284546001808201875586805288517f290decd9548b62a8d60345a988386fc84ba6bc95484008f6362f93160ef3e563600890930292830180547fffffffffffffffffffffffff00000000000000000000000000000000000000009081166001600160a01b0393841617909155968a01517f290decd9548b62a8d60345a988386fc84ba6bc95484008f6362f93160ef3e56484018054909816911617909555928701517f290decd9548b62a8d60345a988386fc84ba6bc95484008f6362f93160ef3e565840155908601517f290decd9548b62a8d60345a988386fc84ba6bc95484008f6362f93160ef3e5668301558501517f290decd9548b62a8d60345a988386fc84ba6bc95484008f6362f93160ef3e567820155928401517f290decd9548b62a8d60345a988386fc84ba6bc95484008f6362f93160ef3e56884015560c08401517f290decd9548b62a8d60345a988386fc84ba6bc95484008f6362f93160ef3e5698401805460e0870151610100808901516101208a015168ffffffffffffffffff1990941695151568ffffffffffffffff0019169590951767ffffffffffffffff928316909102177fffffffffffffff00000000000000000000000000000000ffffffffffffffffff166901000000000000000000948216949094027fffffffffffffff0000000000000000ffffffffffffffffffffffffffffffffff1693909317600160881b93909116929092029190911790556101408401517f290decd9548b62a8d60345a988386fc84ba6bc95484008f6362f93160ef3e56a9093019290925554919250339161104c9190611e3d565b60408084015181516001600160a01b038816815260208101919091527f6d4365eeea2290a1fb5155f6f527bb01f4a2797dea12f20abc314effacafd202910160405180910390a3505050565b5f6110a483835f6111ba565b9392505050565b5f6110a483836005611306565b92915050565b5f6110b88267ffffffffffffffff166005611426565b5f826110e6576110e35f6110be565b92505b816110f7576110f45f6110be565b91505b6110a483835f6114db565b5f61110e8484846115d6565b949350505050565b5f82611128576111255f6110be565b92505b81611139576111365f6110be565b91505b6110a483835f61167f565b5f61114f8230611734565b5090565b5f61115d836117bd565b90505f61116a828461188e565b90508061118a5760405163cf6c44e960e01b815260040160405180910390fd5b60405184907f1af0453083661051f6e56e5c070792320652e612154bf9af8637bb1e7655b99d905f90a250505050565b7f5ea69329017273582817d320489fbd94f775580e90c092699ca6f3d12fdf7d01547fed8d60e34876f751cc8b014c560745351147d9de11b9347c854e881b128ea6008054604051637d6e912360e11b81527f5ea69329017273582817d320489fbd94f775580e90c092699ca6f3d12fdf7d0092916001600160a01b03169063fadd22469061124d908990600401611e8a565b5f604051808303815f87803b158015611264575f80fd5b505af1158015611276573d5f803e3d5ffd5b50508354604051633263b83b60e01b81526001600160a01b039091169250633263b83b915086906112af9087908b908b90600401611e9c565b5f604051808303818588803b1580156112c6575f80fd5b505af11580156112d8573d5f803e3d5ffd5b50505050506112e783876119a9565b600182018054905f6112f883611ecd565b919050555050509392505050565b7fed8d60e34876f751cc8b014c560745351147d9de11b9347c854e881b128ea6015460405163196d0b9b60e01b81525f917fed8d60e34876f751cc8b014c560745351147d9de11b9347c854e881b128ea600916001600160a01b039091169063196d0b9b9061137f908890339089908990600401611f5c565b6020604051808303815f875af115801561139b573d5f803e3d5ffd5b505050506040513d601f19601f820116820180604052508101906113bf9190611dff565b8154604051630f8e573b60e21b8152600481018390523360248201529193506001600160a01b031690633e395cec906044015f604051808303815f87803b158015611408575f80fd5b505af115801561141a573d5f803e3d5ffd5b50505050509392505050565b7fed8d60e34876f751cc8b014c560745351147d9de11b9347c854e881b128ea60154604051639cd07acb60e01b81525f917fed8d60e34876f751cc8b014c560745351147d9de11b9347c854e881b128ea600916001600160a01b0390911690639cd07acb9061149b9087908790600401611f92565b6020604051808303815f875af11580156114b7573d5f803e3d5ffd5b505050506040513d601f19601f8201168201806040525081019061110e9190611dff565b5f8082156114ee5750600160f81b6114f1565b505f5b7fed8d60e34876f751cc8b014c560745351147d9de11b9347c854e881b128ea6015460405163f77f3f1d60e01b815260048101879052602481018690527fff00000000000000000000000000000000000000000000000000000000000000831660448201527fed8d60e34876f751cc8b014c560745351147d9de11b9347c854e881b128ea600916001600160a01b03169063f77f3f1d906064015b6020604051808303815f875af11580156115a8573d5f803e3d5ffd5b505050506040513d601f19601f820116820180604052508101906115cc9190611dff565b9695505050505050565b5f807fed8d60e34876f751cc8b014c560745351147d9de11b9347c854e881b128ea6006001810154604051637702dcff60e01b81526004810188905260248101879052604481018690529192506001600160a01b031690637702dcff906064016020604051808303815f875af1158015611652573d5f803e3d5ffd5b505050506040513d601f19601f820116820180604052508101906116769190611dff565b95945050505050565b5f8082156116925750600160f81b611695565b505f5b7fed8d60e34876f751cc8b014c560745351147d9de11b9347c854e881b128ea6015460405163022f65e760e31b815260048101879052602481018690527fff00000000000000000000000000000000000000000000000000000000000000831660448201527fed8d60e34876f751cc8b014c560745351147d9de11b9347c854e881b128ea600916001600160a01b03169063117b2f389060640161158c565b5f7fed8d60e34876f751cc8b014c560745351147d9de11b9347c854e881b128ea6008054604051635ca4b5b160e11b8152600481018690526001600160a01b03858116602483015292935091169063b9496b62906044015f604051808303815f87803b1580156117a2575f80fd5b505af11580156117b4573d5f803e3d5ffd5b50505050505050565b5f8181527f5ea69329017273582817d320489fbd94f775580e90c092699ca6f3d12fdf7d0260205260408120546060917f5ea69329017273582817d320489fbd94f775580e90c092699ca6f3d12fdf7d0091900361182e5760405163d66ca67560e01b815260040160405180910390fd5b5f8381526002820160209081526040918290208054835181840281018401909452808452909183018282801561188157602002820191905f5260205f20905b81548152602001906001019080831161186d575b5050505050915050919050565b5f60248161189b85611a3c565b90505f8167ffffffffffffffff8111156118b7576118b7611c29565b6040519080825280601f01601f1916602001820160405280156118e1576020820181803683370190505b509050818360208301377fed8d60e34876f751cc8b014c560745351147d9de11b9347c854e881b128ea60254604051632c027b1360e21b81527fed8d60e34876f751cc8b014c560745351147d9de11b9347c854e881b128ea600916001600160a01b03169063b009ec4c9061195e908a9086908b90600401611fa6565b6020604051808303815f875af115801561197a573d5f803e3d5ffd5b505050506040513d601f19601f8201168201806040525081019061199e919061202b565b979650505050505050565b5f8281527f5ea69329017273582817d320489fbd94f775580e90c092699ca6f3d12fdf7d0260205260409020547f5ea69329017273582817d320489fbd94f775580e90c092699ca6f3d12fdf7d009015611a1657604051633f06d22b60e01b815260040160405180910390fd5b5f83815260028201602090815260409091208351611a3692850190611ae9565b50505050565b80515f9081805b82811015611add575f858281518110611a5e57611a5e611deb565b6020026020010151601e60208110611a7857611a78611deb565b1a6053811115611a8a57611a8a611f28565b90506009816053811115611aa057611aa0611f28565b60ff161015611abb57611ab4602084611e2a565b9250611ad4565b60405163ce54a8d160e01b815260040160405180910390fd5b50600101611a43565b5061110e602082611e2a565b828054828255905f5260205f20908101928215611b22579160200282015b82811115611b22578251825591602001919060010190611b07565b5061114f9291505b8082111561114f575f8155600101611b2a565b5f60208284031215611b4d575f80fd5b5035919050565b80356001600160a01b0381168114611b6a575f80fd5b919050565b5f8060408385031215611b80575f80fd5b82359150611b9060208401611b54565b90509250929050565b5f805f8060608587031215611bac575f80fd5b8435935060208501359250604085013567ffffffffffffffff80821115611bd1575f80fd5b818701915087601f830112611be4575f80fd5b813581811115611bf2575f80fd5b886020828501011115611c03575f80fd5b95989497505060200194505050565b803567ffffffffffffffff81168114611b6a575f80fd5b634e487b7160e01b5f52604160045260245ffd5b604051601f8201601f1916810167ffffffffffffffff81118282101715611c6657611c66611c29565b604052919050565b5f805f805f60a08688031215611c82575f80fd5b85359450611c9260208701611c12565b9350611ca060408701611c12565b9250611cae60608701611c12565b9150608086013567ffffffffffffffff80821115611cca575f80fd5b818801915088601f830112611cdd575f80fd5b813581811115611cef57611cef611c29565b611cfe60208260051b01611c3d565b8082825260208201915060208360051b86010192508b831115611d1f575f80fd5b602085015b83811015611db0578481351115611d39575f80fd5b803586018d603f820112611d4b575f80fd5b602081013586811115611d6057611d60611c29565b611d73601f8201601f1916602001611c3d565b8181528f6040838501011115611d87575f80fd5b816040840160208301375f60208383010152808652505050602083019250602081019050611d24565b5080955050505050509295509295909350565b5f8060408385031215611dd4575f80fd5b611ddd83611b54565b946020939093013593505050565b634e487b7160e01b5f52603260045260245ffd5b5f60208284031215611e0f575f80fd5b5051919050565b634e487b7160e01b5f52601160045260245ffd5b808201808211156110b8576110b8611e16565b818103818111156110b8576110b8611e16565b5f815180845260208085019450602084015f5b83811015611e7f57815187529582019590820190600101611e63565b509495945050505050565b602081525f6110a46020830184611e50565b838152606060208201525f611eb46060830185611e50565b905063ffffffff60e01b83166040830152949350505050565b5f60018201611ede57611ede611e16565b5060010190565b5f81518084525f5b81811015611f0957602081850181015186830182015201611eed565b505f602082860101526020601f19601f83011685010191505092915050565b634e487b7160e01b5f52602160045260245ffd5b60548110611f5857634e487b7160e01b5f52602160045260245ffd5b9052565b8481526001600160a01b0384166020820152608060408201525f611f836080830185611ee5565b90506116766060830184611f3c565b828152604081016110a46020830184611f3c565b606081525f611fb86060830186611e50565b602083820381850152611fcb8287611ee5565b915083820360408501528185518084528284019150828160051b8501018388015f5b8381101561201b57601f19878403018552612009838351611ee5565b94860194925090850190600101611fed565b50909a9950505050505050505050565b5f6020828403121561203b575f80fd5b815180151581146110a4575f80fdfea164736f6c6343000818000a",
  "linkReferences": {},
  "deployedLinkReferences": {}
}