{
    "_format": "hh-sol-artifact-1",
    "contractName": "ZAMADAO",
    "sourceName": "contracts/ZamaDAOERC20.sol",
    "abi": [
        {
            "inputs": [],
            "stateMutability": "nonpayable",
            "type": "constructor"
        },
        {
            "inputs": [
                {
                    "internalType": "address",
                    "name": "spender",
                    "type": "address"
                },
                {
                    "internalType": "uint256",
                    "name": "allowance",
                    "type": "uint256"
                },
                {
                    "internalType": "uint256",
                    "name": "needed",
                    "type": "uint256"
                }
            ],
            "name": "ERC20InsufficientAllowance",
            "type": "error"
        },
        {
            "inputs": [
                {
                    "internalType": "address",
                    "name": "sender",
                    "type": "address"
                },
                {
                    "internalType": "uint256",
                    "name": "balance",
                    "type": "uint256"
                },
                {
                    "internalType": "uint256",
                    "name": "needed",
                    "type": "uint256"
                }
            ],
            "name": "ERC20InsufficientBalance",
            "type": "error"
        },
        {
            "inputs": [
                {
                    "internalType": "address",
                    "name": "approver",
                    "type": "address"
                }
            ],
            "name": "ERC20InvalidApprover",
            "type": "error"
        },
        {
            "inputs": [
                {
                    "internalType": "address",
                    "name": "receiver",
                    "type": "address"
                }
            ],
            "name": "ERC20InvalidReceiver",
            "type": "error"
        },
        {
            "inputs": [
                {
                    "internalType": "address",
                    "name": "sender",
                    "type": "address"
                }
            ],
            "name": "ERC20InvalidSender",
            "type": "error"
        },
        {
            "inputs": [
                {
                    "internalType": "address",
                    "name": "spender",
                    "type": "address"
                }
            ],
            "name": "ERC20InvalidSpender",
            "type": "error"
        },
        {
            "anonymous": false,
            "inputs": [
                {
                    "indexed": true,
                    "internalType": "address",
                    "name": "owner",
                    "type": "address"
                },
                {
                    "indexed": true,
                    "internalType": "address",
                    "name": "spender",
                    "type": "address"
                },
                {
                    "indexed": false,
                    "internalType": "uint256",
                    "name": "value",
                    "type": "uint256"
                }
            ],
            "name": "Approval",
            "type": "event"
        },
        {
            "anonymous": false,
            "inputs": [
                {
                    "indexed": true,
                    "internalType": "address",
                    "name": "from",
                    "type": "address"
                },
                {
                    "indexed": true,
                    "internalType": "address",
                    "name": "to",
                    "type": "address"
                },
                {
                    "indexed": false,
                    "internalType": "uint256",
                    "name": "value",
                    "type": "uint256"
                }
            ],
            "name": "Transfer",
            "type": "event"
        },
        {
            "inputs": [],
            "name": "MAX_CLAIM",
            "outputs": [
                {
                    "internalType": "uint256",
                    "name": "",
                    "type": "uint256"
                }
            ],
            "stateMutability": "view",
            "type": "function"
        },
        {
            "inputs": [
                {
                    "internalType": "address",
                    "name": "owner",
                    "type": "address"
                },
                {
                    "internalType": "address",
                    "name": "spender",
                    "type": "address"
                }
            ],
            "name": "allowance",
            "outputs": [
                {
                    "internalType": "uint256",
                    "name": "",
                    "type": "uint256"
                }
            ],
            "stateMutability": "view",
            "type": "function"
        },
        {
            "inputs": [
                {
                    "internalType": "address",
                    "name": "spender",
                    "type": "address"
                },
                {
                    "internalType": "uint256",
                    "name": "value",
                    "type": "uint256"
                }
            ],
            "name": "approve",
            "outputs": [
                {
                    "internalType": "bool",
                    "name": "",
                    "type": "bool"
                }
            ],
            "stateMutability": "nonpayable",
            "type": "function"
        },
        {
            "inputs": [
                {
                    "internalType": "address",
                    "name": "account",
                    "type": "address"
                }
            ],
            "name": "balanceOf",
            "outputs": [
                {
                    "internalType": "uint256",
                    "name": "",
                    "type": "uint256"
                }
            ],
            "stateMutability": "view",
            "type": "function"
        },
        {
            "inputs": [
                {
                    "internalType": "uint256",
                    "name": "amount",
                    "type": "uint256"
                }
            ],
            "name": "claim",
            "outputs": [],
            "stateMutability": "nonpayable",
            "type": "function"
        },
        {
            "inputs": [
                {
                    "internalType": "address",
                    "name": "",
                    "type": "address"
                }
            ],
            "name": "claimed",
            "outputs": [
                {
                    "internalType": "uint256",
                    "name": "",
                    "type": "uint256"
                }
            ],
            "stateMutability": "view",
            "type": "function"
        },
        {
            "inputs": [],
            "name": "decimals",
            "outputs": [
                {
                    "internalType": "uint8",
                    "name": "",
                    "type": "uint8"
                }
            ],
            "stateMutability": "view",
            "type": "function"
        },
        {
            "inputs": [],
            "name": "name",
            "outputs": [
                {
                    "internalType": "string",
                    "name": "",
                    "type": "string"
                }
            ],
            "stateMutability": "view",
            "type": "function"
        },
        {
            "inputs": [],
            "name": "symbol",
            "outputs": [
                {
                    "internalType": "string",
                    "name": "",
                    "type": "string"
                }
            ],
            "stateMutability": "view",
            "type": "function"
        },
        {
            "inputs": [],
            "name": "totalSupply",
            "outputs": [
                {
                    "internalType": "uint256",
                    "name": "",
                    "type": "uint256"
                }
            ],
            "stateMutability": "view",
            "type": "function"
        },
        {
            "inputs": [
                {
                    "internalType": "address",
                    "name": "to",
                    "type": "address"
                },
                {
                    "internalType": "uint256",
                    "name": "value",
                    "type": "uint256"
                }
            ],
            "name": "transfer",
            "outputs": [
                {
                    "internalType": "bool",
                    "name": "",
                    "type": "bool"
                }
            ],
            "stateMutability": "nonpayable",
            "type": "function"
        },
        {
            "inputs": [
                {
                    "internalType": "address",
                    "name": "from",
                    "type": "address"
                },
                {
                    "internalType": "address",
                    "name": "to",
                    "type": "address"
                },
                {
                    "internalType": "uint256",
                    "name": "value",
                    "type": "uint256"
                }
            ],
            "name": "transferFrom",
            "outputs": [
                {
                    "internalType": "bool",
                    "name": "",
                    "type": "bool"
                }
            ],
            "stateMutability": "nonpayable",
            "type": "function"
        }
    ],
    "bytecode": "0x608060405234801562000010575f80fd5b50604051806040016040528060078152602001665a414d4144414f60c81b815250604051806040016040528060048152602001635a414d4160e01b81525081600390816200005f9190620002c0565b5060046200006e8282620002c0565b505050620000a83362000086620000ae60201b60201c565b6200009390600a6200049b565b620000a290620f4240620004b2565b620000b3565b620004e2565b601290565b6001600160a01b038216620000e25760405163ec442f0560e01b81525f60048201526024015b60405180910390fd5b620000ef5f8383620000f3565b5050565b6001600160a01b03831662000121578060025f828254620001159190620004cc565b90915550620001939050565b6001600160a01b0383165f9081526020819052604090205481811015620001755760405163391434e360e21b81526001600160a01b03851660048201526024810182905260448101839052606401620000d9565b6001600160a01b0384165f9081526020819052604090209082900390555b6001600160a01b038216620001b157600280548290039055620001cf565b6001600160a01b0382165f9081526020819052604090208054820190555b816001600160a01b0316836001600160a01b03167fddf252ad1be2c89b69c2b068fc378daa952ba7f163c4a11628f55a4df523b3ef836040516200021591815260200190565b60405180910390a3505050565b634e487b7160e01b5f52604160045260245ffd5b600181811c908216806200024b57607f821691505b6020821081036200026a57634e487b7160e01b5f52602260045260245ffd5b50919050565b601f821115620002bb57805f5260205f20601f840160051c81016020851015620002975750805b601f840160051c820191505b81811015620002b8575f8155600101620002a3565b50505b505050565b81516001600160401b03811115620002dc57620002dc62000222565b620002f481620002ed845462000236565b8462000270565b602080601f8311600181146200032a575f8415620003125750858301515b5f19600386901b1c1916600185901b17855562000384565b5f85815260208120601f198616915b828110156200035a5788860151825594840194600190910190840162000339565b50858210156200037857878501515f19600388901b60f8161c191681555b505060018460011b0185555b505050505050565b634e487b7160e01b5f52601160045260245ffd5b600181815b80851115620003e057815f1904821115620003c457620003c46200038c565b80851615620003d257918102915b93841c9390800290620003a5565b509250929050565b5f82620003f85750600162000495565b816200040657505f62000495565b81600181146200041f57600281146200042a576200044a565b600191505062000495565b60ff8411156200043e576200043e6200038c565b50506001821b62000495565b5060208310610133831016604e8410600b84101617156200046f575081810a62000495565b6200047b8383620003a0565b805f19048211156200049157620004916200038c565b0290505b92915050565b5f620004ab60ff841683620003e8565b9392505050565b80820281158282048414176200049557620004956200038c565b808201808211156200049557620004956200038c565b61089680620004f05f395ff3fe608060405234801561000f575f80fd5b50600436106100cf575f3560e01c8063379607f51161007d578063a9059cbb11610058578063a9059cbb1461019d578063c884ef83146101b0578063dd62ed3e146101cf575f80fd5b8063379607f51461015857806370a082311461016d57806395d89b4114610195575f80fd5b806318160ddd116100ad57806318160ddd1461012e57806323b872dd14610136578063313ce56714610149575f80fd5b806301b65b71146100d357806306fdde03146100f6578063095ea7b31461010b575b5f80fd5b6100e36801a055690d9db8000081565b6040519081526020015b60405180910390f35b6100fe610207565b6040516100ed9190610702565b61011e610119366004610769565b610297565b60405190151581526020016100ed565b6002546100e3565b61011e610144366004610791565b6102b0565b604051601281526020016100ed565b61016b6101663660046107ca565b6102d3565b005b6100e361017b3660046107e1565b6001600160a01b03165f9081526020819052604090205490565b6100fe6103cb565b61011e6101ab366004610769565b6103da565b6100e36101be3660046107e1565b60056020525f908152604090205481565b6100e36101dd366004610801565b6001600160a01b039182165f90815260016020908152604080832093909416825291909152205490565b60606003805461021690610832565b80601f016020809104026020016040519081016040528092919081815260200182805461024290610832565b801561028d5780601f106102645761010080835404028352916020019161028d565b820191905f5260205f20905b81548152906001019060200180831161027057829003601f168201915b5050505050905090565b5f336102a48185856103e7565b60019150505b92915050565b5f336102bd8582856103f9565b6102c8858585610475565b506001949350505050565b5f81116103275760405162461bcd60e51b815260206004820152601160248201527f43616e6e6f7420636c61696d207a65726f00000000000000000000000000000060448201526064015b60405180910390fd5b335f908152600560205260409020546801a055690d9db800009061034c90839061086a565b111561039a5760405162461bcd60e51b815260206004820152601960248201527f436c61696d2065786365656473206d617820616c6c6f77656400000000000000604482015260640161031e565b335f90815260056020526040812080548392906103b890849061086a565b909155506103c8905033826104d2565b50565b60606004805461021690610832565b5f336102a4818585610475565b6103f4838383600161050a565b505050565b6001600160a01b038381165f908152600160209081526040808320938616835292905220545f1981101561046f578181101561046157604051637dc7a0d960e11b81526001600160a01b0384166004820152602481018290526044810183905260640161031e565b61046f84848484035f61050a565b50505050565b6001600160a01b03831661049e57604051634b637e8f60e11b81525f600482015260240161031e565b6001600160a01b0382166104c75760405163ec442f0560e01b81525f600482015260240161031e565b6103f48383836105dc565b6001600160a01b0382166104fb5760405163ec442f0560e01b81525f600482015260240161031e565b6105065f83836105dc565b5050565b6001600160a01b0384166105335760405163e602df0560e01b81525f600482015260240161031e565b6001600160a01b03831661055c57604051634a1406b160e11b81525f600482015260240161031e565b6001600160a01b038085165f908152600160209081526040808320938716835292905220829055801561046f57826001600160a01b0316846001600160a01b03167f8c5be1e5ebec7d5bd14f71427d1e84f3dd0314c0f7b2291e5b200ac8c7c3b925846040516105ce91815260200190565b60405180910390a350505050565b6001600160a01b038316610606578060025f8282546105fb919061086a565b909155506106769050565b6001600160a01b0383165f90815260208190526040902054818110156106585760405163391434e360e21b81526001600160a01b0385166004820152602481018290526044810183905260640161031e565b6001600160a01b0384165f9081526020819052604090209082900390555b6001600160a01b038216610692576002805482900390556106b0565b6001600160a01b0382165f9081526020819052604090208054820190555b816001600160a01b0316836001600160a01b03167fddf252ad1be2c89b69c2b068fc378daa952ba7f163c4a11628f55a4df523b3ef836040516106f591815260200190565b60405180910390a3505050565b5f602080835283518060208501525f5b8181101561072e57858101830151858201604001528201610712565b505f604082860101526040601f19601f8301168501019250505092915050565b80356001600160a01b0381168114610764575f80fd5b919050565b5f806040838503121561077a575f80fd5b6107838361074e565b946020939093013593505050565b5f805f606084860312156107a3575f80fd5b6107ac8461074e565b92506107ba6020850161074e565b9150604084013590509250925092565b5f602082840312156107da575f80fd5b5035919050565b5f602082840312156107f1575f80fd5b6107fa8261074e565b9392505050565b5f8060408385031215610812575f80fd5b61081b8361074e565b91506108296020840161074e565b90509250929050565b600181811c9082168061084657607f821691505b60208210810361086457634e487b7160e01b5f52602260045260245ffd5b50919050565b808201808211156102aa57634e487b7160e01b5f52601160045260245ffdfea164736f6c6343000818000a",
    "linkReferences": {},
    "deployedLinkReferences": {}
}